:020000040801F1
:10000000B8E70120E19A0108ED030108EF030108B8
:10001000F1030108F3030108F503010800000000E3
:10002000000000000000000000000000F7030108CD
:10003000F903010800000000FB030108FD030108AB
:10004000FB9A0108FB9A0108FB9A0108FB9A010838
:10005000FB9A0108FB9A0108FB9A0108FB9A010828
:10006000FB9A0108FB9A0108FB9A0108FB9A010818
:10007000FB9A0108FB9A0108FB9A0108FB9A010808
:10008000FB9A0108FB9A0108FB9A0108FB9A0108F8
:10009000FB9A0108FB9A0108FB9A0108FB9A0108E8
:1000A000FB9A0108FB9A0108FB9A0108FB9A0108D8
:1000B000FB9A0108FB9A0108FB9A0108FB9A0108C8
:1000C000FB9A0108FB9A0108FB9A0108FB9A0108B8
:1000D000FB9A0108699A0108FB9A010801040108CA
:1000E000FB9A0108FB9A0108FB9A0108FB9A010898
:1000F000FB9A0108FB9A0108FB9A0108FB9A010888
:10010000FB9A01084F220108FB9A0108FB9A01089B
:100110008F040108FB9A0108FB9A0108FB9A010869
:10012000FB9A0108FB9A0108FB9A0108FB9A010857
:10013000FB9A0108FB9A0108FB9A0108FB9A010847
:10014000FB9A0108FB9A0108FB9A01089138020802
:10015000FB9A0108FB9A0108FB9A0108FB040108BD
:10016000FB9A0108FB9A0108FB9A0108FB9A010817
:10017000FB9A0108FB9A0108FB9A0108FB9A010807
:10018000FB9A0108FB9A010800F002F800F064F8FD
:100190000AA090E8000C82448344AAF10107DA45E2
:1001A00001D100F059F8AFF2090EBAE80F0013F0D0
:1001B000010F18BFFB1A43F001031847CC6201007E
:1001C000EC6201000A444FF0000C10F8013B13F000
:1001D000070408BF10F8014B1D1108BF10F8015BA0
:1001E000641E05D010F8016B641E01F8016BF9D193
:1001F00013F0080F1EBF10F8014BAD1C0C1B09D1EA
:100200006D1E58BF01F801CBFAD505E014F8016B5B
:1002100001F8016B6D1EF9D59142D6D370470000ED
:100220000023002400250026103A28BF78C1FBD8FF
:10023000520728BF30C148BF0B607047782913F0C0
:100240007985732913F0CD87002070471FB515F00D
:1002500008FE1FBD10B510BD13F0FEFF1146FFF7DD
:10026000F5FF00F013F814F01CF803B4FFF7F2FFE9
:1002700003BC09F0B7FB000030BF72B6704762B62E
:10028000704780F308887047704770474B4982B0C9
:10029000494808604A480090401E0090FCD102F096
:1002A000DAFD002041F28831401C80B28142FBD847
:1002B00008F0E2FD06F0B2FF424C04202080082046
:1002C000E0814FF4A06009F02BFC4FF4E13009F01D
:1002D00092FB3D4801223DA180680EF0E3F83C49C5
:1002E0003E4A3D4B08703B480090012102F19400CA
:1002F00011F062FE0BF0BAFC2088032821D90B27ED
:10030000374D4FF005084FF006094FF0070A012658
:10031000B5F84200022818BFA5F8766637D03148F4
:1003200004F0F8FE06F0EDFF0BF09BFC03F0DBF9A8
:1003300003F005FA03F044FA03F05EFA208803287C
:10034000E6D80BF08EFC03F0CEF903F0F8F903F0D9
:1003500037FA03F051FA2088022807D8214804F020
:10036000D9FE2088022898BF06F0CBFF20880128FC
:100370009CBF1D4804F086FA08F04CF908F042FED4
:1003800009F0CCFA08F025FA06F0B0FCD9E7E88CC1
:10039000012808BFA5F87676C1D0052808BFA5F8C2
:1003A0007686BCD0062808BFA5F87696B7D0072871
:1003B00008BFA5F876A6B2E70000010808ED00E046
:1003C000A0860100241F0020ACDC0120323A00008E
:1003D000000000203C0500202805002088050020A2
:1003E00004290020E4280020942800207047FEE71C
:1003F000FEE7FEE7FEE770477047704703F0C9B8B5
:1004000070B5634E40F2255130460AF0FFFB614C57
:100410000025C8B130460AF068FBE17811B1012926
:1004200003D00BE00121E170657161795A4A88546B
:100430006079401C6071607984F80402258040F284
:10044000255130460AF008FC40F2266130460AF099
:10045000DDFB002808BF70BD94F8050268B1217962
:100460006218481C2071917930460AF03AFB94F8E2
:100470000502401E84F8050202E00420A0702571E8
:100480003046BDE8704040F226610AF0E5BB70B529
:10049000424C40F2255120460AF0B8FB60B120469C
:1004A0000AF023FBC0B203F062FA06F012FE40F23B
:1004B000255120460AF0D0FB40F226612546204611
:1004C0000AF0A4FB002808BF70BD35484178354CC0
:1004D0002278C91C914298BF002006D92178415C3E
:1004E00028460AF0FEFA2078401C20702846BDE815
:1004F000704040F226610AF0AFBB70B52A4E40F260
:10050000255130460AF082FB284C0025C8B1304600
:100510000AF0EBFAA178012904D004290BD10121BA
:10052000A17025712179224A88542079401C2071BC
:10053000207984F80402258040F2255130460AF0E3
:100540008BFB40F2266130460AF060FB002808BFB2
:1005500070BD94F8050268B121796218481C2071B9
:10056000917930460AF0BDFA94F80502401E84F8ED
:10057000050205E00D4803F0C3FB0420A0702571BF
:1005800025803046BDE8704040F226610AF064BB29
:10059000004800403A1F00203F200020004C00404F
:1005A00058280020A8020020001401404623002003
:1005B0004C230020534882B0016841F4700101606F
:1005C0005148016841F001010160504900230B606E
:1005D000026822F4102222F08072026000F1040C02
:1005E0004B4ACCF80020026822F4802202600A1DE7
:1005F000136001930093026842F480320260026843
:1006000002F400320092019A521C0192009A1AB927
:10061000019AB2F5A04FF2D1026812F4003F08BF70
:10062000009331D0012200923A4A136843F080537C
:100630001360394A136843F4404313600A680A6040
:100640000A6842F400420A600A6842F4A0520A6052
:10065000324ACCF80020026842F0807202600268E0
:1006600012F0007FFBD02E4A40F20570106008683F
:1006700020F003000860086840F002000860086885
:1006800000F00C000828FAD126494FF000600860FD
:1006900002B07047DFF874C030B4DCF80000224BC1
:1006A00010F00C01214806D05C10042908BF04603A
:1006B00002D008290CD00360DCF800101C4AC1F3FA
:1006C0000311515C026822FA01F1016030BC7047ED
:1006D00018490A68C2F380550A68002D02F03F02EB
:1006E00014BFB4FBF2F2B3FBF2F20B680968C3F378
:1006F00088135A43C1F30141491C4900B2FBF1F18F
:100700000160D9E788ED00E0003802400838024077
:100710001030002440380240007000400854400768
:10072000003C024008ED00E00024F400040000203A
:100730000800002004380240FB4900200860091D21
:100740000860091D0860091D0860F8490860091D56
:100750000860091D0860F74AF5491160111D08601D
:1007600070470021012813BF0028F34A507026214A
:1007700008467047F1490A6822F0FF0210430860FA
:10078000704710B5EE4A0446116811F0450FFBD0D2
:1007900004200AF04CF820B104200AF050F803209D
:1007A00010BD01200AF043F820B101200AF047F8FB
:1007B000012010BDE3480068A0421CBF102010BDFE
:1007C00040F2FF500AF03BF8DF48006800F00800F4
:1007D00010BD2DE9F04782B00024DC4D00944FF0AD
:1007E000080A019410204FF04009C5F800A0C5E99F
:1007F00001094FF48068C5E903480F46264628469C
:1008000009F099FF1020FFF7BCFF00281CBF02B0C1
:10081000BDE8F087C8480089000428603720C5E992
:100820000109C5E90368C94809F085FF3720FFF7CA
:10083000A8FF00281CBF02B0BDE8F0874FF0FF31D1
:10084000C348C0E9001A302181600221C0E90316C3
:100850000121416109F094FF3320C5F80890C5E9F2
:100860000060C5E90368B94809F065FF3320FFF768
:1008700088FF5FEA00081CBF02B0BDE8F087B04DFA
:10088000286840F22A66304204BFE946DFF8C4A275
:100890000FD100BF4FF4001009F0C9FF30B1DAF8F2
:1008A000000049F82400641C022C02D2286830425F
:1008B000F0D0082009F0BBFF30B1082009F0BFFFDD
:1008C00002B00420BDE8F087022009F0B0FF30B18B
:1008D000022009F0B4FF02B00220BDE8F08720201A
:1008E00009F0A5FF30B1202009F0A9FF02B00620D1
:1008F000BDE8F0874FF4007009F099FF38B14FF46C
:10090000007009F09CFF02B00720BDE8F08740F2BC
:10091000FF5009F094FF009800BA7860019800BA7F
:10092000386002B04046BDE8F0872DE9F04100256F
:1009300082B02E4600950195002818BF02268248F5
:10094000006810F0007F1EBF0E2002B0BDE8F081ED
:10095000794C6946208980B2FFF73BFF00281CBF15
:1009600002B0BDE8F081019810F4802F02BF25206D
:1009700002B0BDE8F0812089744C0004402720605B
:100980003720C4E901074FF48068C4E903582046C2
:1009900009F0D1FE3720FFF7F4FE00281CBF02B09B
:1009A000BDE8F0810620C4F81080C4E90060C4E905
:1009B0000275664809F0BFFE0620FFF7E2FE02B0AE
:1009C000BDE8F08110B55C49044600200978032990
:1009D00018D000291EBF0129022910BDB4F5805F7F
:1009E00010D0E0B2FFF7A1FF002818BF10BD534997
:1009F0000A6822F4C0520A600A6822430A600A6840
:100A00000A6010BD272010BD504910B508600720AE
:100A10004860402088600020C8604FF48060086112
:100A2000084609F088FEBDE810400720A9E62DE938
:100A3000F0074149484E012591F8009080F8569002
:100A40000989A0F8541031680A0E93090370C2F3A3
:100A50008303437002F0030282700A0CC2700A0A18
:100A60000271417174683346210E0A01C4F30741D3
:100A700042EA111201F00F08C280C4F3072180F886
:100A80000880CA094272C1F380128272C1F3401217
:100A9000C272C1F300120273002242739F68B9F15F
:100AA000000F4FEA176CC7F30743C7F3072A1CBFB1
:100AB000B9F1010FB9F1030F03D0B9F1020F4DD015
:100AC0005CE08907090DE4B241EA840141EA9C1423
:100AD000CCF3C201046101750CF00701417559099D
:100AE0008175C3F38201C17599074B0F514643EAE3
:100AF000D11C80F818C0631C0CF1020C05FA0CF430
:100B0000A3FB04CA4FEAE47902FB04A403FB0943F4
:100B100005FA08F4ACFB048903FB04930CFB0233D5
:100B20000465C0E9128329E0002C0140242C014017
:100B3000FF07C000382C014018000020042C0140A1
:100B4000342C0140102C0140142C0140E00B0020FB
:100B5000F40B0020802C01400C0C0020A106890A17
:100B600041EA0C210B4303615B1C4FEA533CDB045D
:100B7000C0E9123C4FF4007351460365C1F3801382
:100B8000437689064B0EF9B243EAD113837601F01E
:100B90007F01C176F368190E4FEAD11C80F81CC0A2
:100BA000C1F3411C80F81DC0C1F3820C80F81EC047
:100BB00089074FEA117CC3F307414CEA911C80F886
:100BC0001FC0C1F3401C80F820C080F8212001F034
:100BD000010180F82210C3F307214FEAD11C80F8ED
:100BE00023C0C1F3801C80F824C0C1F3401C80F8EE
:100BF00025C0C1F3001C80F826C0C1F3810C80F829
:100C000027C001F0030180F82810C3F34601F94B17
:100C100080F8291080F82A5019684FEA116C80F882
:100C20002CC04FEA114C4FEA0C24C1F3072C44EAC4
:100C30000C0CA0F82EC04FEA016C59680C0E4CEA5F
:100C40000444C1F3074C44EA0C2CC1F307244CEADA
:100C5000040CC0F830C080F8341099684FEA116C69
:100C600080F835C04FEA114C4FEA0C64C1F3072CF1
:100C700044EA0C4CC9B24CEA012CD9684CEA116325
:100C80008363C1F3074390F83CC04CEA131C80F81F
:100C90003CC0C1F3072C1B074CEA1353C387C1F3B5
:100CA000460180F8401080F84150BDE8F00710463A
:100CB000704710B5D04B00244FF6FF711A6812F040
:100CC000450F0AD019B100BF12F0040F08D0032459
:100CD000042009F0B4FD204610BD491EEED2F3E712
:100CE000012009F0A4FD18B10124204609F0A7FD58
:100CF00040F2FF5009F0A3FD204610BD70B5BE4B79
:100D00000C46064600251A6812F0450FFBD0042059
:100D100009F08DFD20B1042009F091FD032070BD84
:100D2000012009F084FD20B1012009F088FD012097
:100D300070BDB2480068B04210D140F2FF5009F0D7
:100D40007EFDAF48026812F4604F09D012F4005FD4
:100D50001CBF132070BD12F4804F05D0102070BD51
:100D6000100C2080284670BD12F4004F14BF0F20D5
:100D7000284670BD01202DE9F84FADF8000009F0BC
:100D8000D5FC002804BF2520BDE8F88F9D4F38789A
:100D9000042800F000819C4D4FF000080220C5E9B6
:100DA00000804FF48069C020C5F81090C5E90208A2
:100DB000284609F0C0FC4FF6FF768F4C304621687C
:100DC00011F0450F06D000287ED000BF11F0040FAF
:100DD0007AD102E0401EF2D2F8E7012009F027FDA7
:100DE000002872D140F2FF5009F029FDDFF810A26F
:100DF000DAF800107F4801600AF1040109684160D7
:100E000082490968816082490968C1607D4800782B
:100E1000002818BF012803D0062818BF02284CD18B
:100E20004FF00300C5E900804FF04000C5F8109076
:100E3000C5E90208744809F07EFC0327EB462068E8
:100E400010F0450FFBD04FF0040009F0F0FC28B182
:100E5000042009F0F4FC0320BDE8F88F012009F01C
:100E6000E6FC28B1012009F0EAFC0120BDE8F88F7A
:100E70006248016838461027814202D03846BDE8F2
:100E8000F88F40F2FF5009F0DAFCDAF8000010F4B5
:100E9000604F04BF000CABF800000ED010F4005FF0
:100EA0001CBF1320BDE8F88F10F4804FE6D110F47A
:100EB000004F1CBF0F20BDE8F88F524F3878032831
:100EC00025D1BDF8000001E03BE048E000042860C7
:100ED000032068604020C5F81090C5E902084A4820
:100EE00009F029FC3046216811F0450F04D040B3C9
:100EF00011F0040F25D102E0401EF4D2F8E70120E2
:100F000009F095FC58BB40F2FF5009F098FC387886
:100F1000042840D0BDF80000B86000042860092013
:100F20006860C020C5F81090C5E90208364809F08D
:100F300002FC206810F0450F0AD016B110F0040F23
:100F400009D00324042009F07AFC2046BDE8F88F7C
:100F5000761EEED2F2E7012009F069FC50B10124BF
:100F6000204609F06CFC40F2FF5009F068FC204676
:100F7000BDE8F88F40F2FF5009F061FCDAF800108C
:100F8000244801602449096841602049096881605A
:100F90001F490968C1600020BDE8F88F10B51649E7
:100FA000086810F0450FFBD0042009F040FC20B188
:100FB000042009F044FC032010BD40F2FF5009F06A
:100FC0003EFC002010BD10B50B4B00244FF6FF7106
:100FD0001A6812F0450F0AD019B100BF12F0040FC1
:100FE0001CD00324042009F02AFC204610BD491E11
:100FF000EED2F3E71C0C0020342C0140102C0140F1
:10100000142C014018000020E00B00201C2C014093
:10101000202C01400C0C0020182C014012F0400F35
:1010200003D00024402009F00AFC204610BD70B512
:1010300000254FF6FF74802009F0F9FB20B1002C49
:1010400004BF032070BD01E0641EF4D240F2FF50E3
:1010500009F0F5FB284670BD2DE9F05F4FF0000B5D
:10106000FF4876215E460175C0F800B0C0F804B0B4
:10107000C0F808B0C0F80CB0D9465C46C0F810B053
:1010800009F028FB032009F04EFBF648016841F403
:1010900080710160F44D07154FF6FF7A2C606C608B
:1010A000AC60C5E90347F04809F045FBD046802015
:1010B00009F0BDFB18B1B8F1000F3FD002E0B8F164
:1010C0000108F4D240F2FF5009F0B9FB4FF4D5709B
:1010D000286008204FF04008C5E90108C5E903472A
:1010E000E14809F028FBDFF884B34FF6FF7000BF3A
:1010F000DBF8001011F0450F2AD010B111F0040FE9
:1011000029D0042009F09BFB4FF0370AC5F808806E
:10111000C5E9004AC5E90347D34809F00CFB37206D
:10112000FFF72FFB002807BF49F4801949F0004959
:101130004FF00109DFF838A319D059E00BF1010194
:10114000032001F0FF0BBBF14A0FA7D3BDE8F09FCE
:10115000401ECDD2D2E711F0400F1CBF402009F055
:101160006EFB0120C3494FF080490870CCE7C5F8F9
:101170000880C5E9004AC5E90347BB4809F0DBFA26
:101180003720FFF7FEFA002818BFBDE8F09F29209E
:10119000C5F80090C5E90108C5E90347B24809F060
:1011A000CAFA00BFDBF8000010F0450FFAD00420A7
:1011B00009F03DFB78BB40F2FF5009F040FBAE491F
:1011C0002046096806F10106CA0F03D14FF6FF72E7
:1011D0009642CCD34FF6FF72964235D211F0804F33
:1011E00008BFBDE8F09F0222A2490A70BDE8F09F47
:1011F000C5F800A0C5E90347C5E901989A4809F078
:101200009AFA00BFDBF8000010F0450FFAD0042076
:1012100009F00DFB28B1042009F011FB0320BDE803
:10122000F09F40F2FF5009F00AFB934920460968FD
:1012300006F10106C90F03D14FF6FF718E42D7D3D5
:101240004FF6FF718E4202D31B20BDE8F09F894A02
:1012500003211170BDE8F09F2DE9F04184B0002614
:101260000121864809F02FF90121C80209F04FF940
:101270000121C80209F078F90420814C029002A9EA
:10128000204608F029FF7F4D0C220821284608F04F
:10129000A9FF0C220921284608F0A4FF0C220A21EC
:1012A000284608F09FFF0C220B21284608F09AFFE1
:1012B0000C221146284608F095FF0C2202212046F8
:1012C00008F090FF0021E01409F04EF96E48002567
:1012D0000560041D2560201D0560001D05606B482C
:1012E0000560001D0560001D05606A4968480860CA
:1012F000081D056031208DF800008DF801508DF833
:10130000025001208DF80300684608F010FCFFF73A
:10131000A3FE584FDFF8808130BBFFF72BFD18BBD1
:101320004046FFF784FBF8B9B8F854000104A8F16F
:1013300050000160072141604021C0E90215090108
:10134000016109F0F8F90720FFF71BFA60B9387856
:1013500003280FD000281CBF012802280AD14FF013
:101360000000FFF7E2FAB0B1397803291CBF04B0DE
:10137000BDE8F08198F85600002814BF0128022625
:10138000206820F0FF0040EA060020607D7004B075
:101390002846BDE8F081206820F4C0502060206815
:1013A00040F40060206020682060E3E710B5002072
:1013B00009F0B9F9002010BD70B5384E90B0144650
:1013C0000546304608F02AFD0028FAD1304608F0DC
:1013D00005FC4FF0006000903148CDE90105002088
:1013E000CDE903404FF48061CDE905018900079103
:1013F0008900CDE908104FF440300A9004200B908A
:1014000003200C9048020D9080100E9069463046E3
:1014100008F079FC2021304608F0D2FC012130464A
:1014200008F0BCFC10B070BD0021012804D0491C9C
:101430004008C9B20128FAD1084670472DE9F05F8B
:101440009146DDF8288004004FF0FF367DD0154826
:10145000002505600748007802282AD124E0000012
:10146000C80B0020042C0140E00B0020342C01406C
:101470000080FF8018000020142C01400C00400068
:10148000000C024000080240002C0140242C0140C6
:10149000FF07C000382C0140300C00205864024087
:1014A000802C01402C2C0140510A4FF4007841EA75
:1014B000C359FC4F4FF0FF30BD60C7E90005012064
:1014C000FD60C7E90450384609F05AF9F64800684B
:1014D00010F0007F1CBF0E20BDE8F09FA8F10100B6
:1014E000B0F5006F4ED218EA000F4BD140464FF0D6
:1014F000000AB8F1010F06D040080AF1010101F01D
:10150000FF0A0128F8D1E94810214FF4806BC0E9A7
:1015100000814021C0F810B0C0E9021509F00BF9B4
:101520001020FFF72EF9002818BFBDE8F09F4FEA02
:101530000A10C7E901804FF0FF3038600120786160
:101540000220C7E90305D74800E01BE009F018F9BD
:10155000D6481121C0E900914021C0F810B0C0E97F
:10156000021509F0E8F81120FFF70BF9070018BF82
:10157000BDE8F09FDFF8389399F8010028B1012801
:1015800075D09DE02620BDE8F09FFEF776FEDFF8DF
:101590002483D8F8000040F22A69C74D10EA090FE9
:1015A00008BFDFF818A322D14FF4004009F03FF93B
:1015B00038B3286844F8040B286844F8040B2868FA
:1015C00044F8080B286844F8040C286844F8100B09
:1015D000286844F80C0C286844F8080C286844F87B
:1015E000040C5646D8F8000010EA090FDCD0082099
:1015F00009F01DF950B1082009F021F90420BDE8D7
:10160000F09F002E18BF761EECD160E0022009F09A
:101610000EF928B1022009F012F90220BDE8F09F6E
:10162000202009F004F928B1202009F008F906204B
:10163000BDE8F09F4FF4007009F0F9F830B14FF4B5
:10164000007009F0FCF80720BDE8F09F4FF400108F
:1016500009F0EDF818B1286844F8040BF6E7FEF736
:101660000EFE40F2FF5009F0EAF829E0FFE789F8A2
:10167000035089F8025089F804509148016840F2FB
:101680002A32114301608F48016841F0080101606E
:10169000002241462046FFF78FFE8B48016811F07B
:1016A000006F01BF99F80410002999F80310002970
:1016B00009D066B199F80300002818BF99F80370A3
:1016C0003846BDE8F09F002E18BF761EE6D14FF0D9
:1016D0000400BDE8F09F2DE9FF5F7549DDE90E6A62
:1016E0000098C86077484FF0000891464FF0FF34EB
:1016F000C0F800800878022803D10602510A41EAA6
:10170000C359684D4FF0FF30C5F80880C5E900089F
:101710000120C5F80C80C5E90480284609F030F89E
:101720006148006810F0007F1EBF0E2004B0BDE8C5
:10173000F09F701EB0F5006F2AD2064228D1002714
:101740003046012E04D0791C4008CFB20128FAD1CE
:10175000564810214FF0400BC0E900610021C0E95C
:1017600002B14FF48061016108F0E5FF1020FFF73E
:1017700008F85FEA00081CBF04B0BDE8F09FBAF1AA
:10178000010F40F208810AFB06F6B6F1007F03D391
:1017900004B02620BDE8F09F3801C5E901604FF094
:1017A000010A4FF0FF30C5F814A02860022000277E
:1017B000C5E903073B4808F0E3FF3C481221C0E9B4
:1017C00000914021C0E902170901016108F0B3FF4F
:1017D0001220FEF7D6FF5FEA00081CBF04B0BDE888
:1017E000F09F334D40F22A39687810B1012858D063
:1017F000D1E0FEF742FDDFF8BCA0DAF800002E4E83
:1018000010EA090F08BFDFF8B4B024D14FF400404C
:1018100009F00DF850B33168E86840F8041B3168EE
:1018200040F8041B316840F8081B316840F8041C7C
:10183000316840F8101B316840F80C1C316840F8E2
:10184000081C316840F8041C5C46E860DAF80000C7
:1018500010EA090FDAD0082008F0E9FF58B1082093
:1018600008F0EDFF04B00420BDE8F09F002C18BF85
:10187000641EEBD197E0022008F0D9FF30B10220BE
:1018800008F0DDFF04B00220BDE8F09F202008F042
:10189000CEFFD8B1202008F0D2FF04B00620BDE86A
:1018A000F09F54E0F40B0020142C0140E00B0020CA
:1018B00018000020342C0140802C0140FFFF7F00E5
:1018C0003C2C01402C2C0140006402404FF400707D
:1018D00008F0ADFF38B14FF4007008F0B0FF04B06D
:1018E0000720BDE8F09F4FF4001008F0A0FF28B1DA
:1018F0003168E86840F8041BE860F4E74FF4807052
:1019000008F095FFE0B1287800281CBF01280228C4
:1019100016D1FD484FF00C01C0E900714FF04001B5
:10192000C0E902174FF48061016108F004FF0C2048
:10193000FEF727FF5FEA00081CBF04B0BDE8F09F78
:10194000FEF79DFC40F2FF5008F079FF23E0EF70B6
:1019500085F802A02F71ED48016841EA0901016094
:10196000EB48016841F0080101600022314600980F
:10197000FFF722FDE748016811F0006F0FD094B126
:101980002879002804BFE8780028F9D0E8780028F2
:1019900018BF95F80380404604B0BDE8F09F002CC6
:1019A00018BF641EE7D104B00420BDE8F09F38B52D
:1019B0000446D948002200920089D34900040860F7
:1019C0000D2048604020C1E902020001086108467C
:1019D00008F0B1FED1490868009010F0450F04D11D
:1019E0000A68009212F0450FFAD0012008F01FFF9C
:1019F00020B1012008F023FF012038BD042008F0A9
:101A000016FF20B1042008F01AFF032038BDC44897
:101A100000680D281CBF102038BD40F2FF5008F0B0
:101A20000EFFC04800680090C0F3432020700020E3
:101A300038BD2DE9F84F4FF000090A9E1746984629
:101A400004008DF800904D46B3467CD0B048C0F8F5
:101A50000090B5484FF0FF31C0F80890C0E9001978
:101A60000121C0F80C90C0E9049108F089FEAD484E
:101A7000006810F0007F1CBF0E20BDE8F88FA6485C
:101A80000078022877D0701EB0F5006F70D2701EFB
:101A900006426DD130464FF0000A012E06D04008B4
:101AA0000AF1010101F0FF0A0128F8D1DFF858829C
:101AB0001020C8E900604020C8E902090001C8F808
:101AC0001000404608F037FE1020FEF75AFE0028AE
:101AD00018BFBDE8F88F9048008901048A4801606A
:101AE0000D2141604021C0E902190901016108F09E
:101AF00022FE0D20FEF745FE002818BFBDE8F88F36
:101B0000884908684FF0FF3810F4807F53D0B8F14F
:101B1000000F53D07C481821C0E900714021C0E972
:101B200002190901016108F006FE1820FEF729FEDE
:101B3000002818BFBDE8F88F774F4FEA0A117A489E
:101B400087F8029000E013E0C0E901614FF0FF3137
:101B500001600121C0F80C90C0E9049108F010FE6A
:101B600078784FF0FF3860B3012879D0EDE002E0DB
:101B70002620BDE8F88F780A4FF4007640EAC8576F
:101B800085E76548A8F10108008901045E48016005
:101B90000D2141604021C0E902190901016108F0ED
:101BA000CAFD0D20FEF7EDFD002804BF5D4800686A
:101BB000AAD0BDE8F88FB8F1000FE2D12920BDE826
:101BC000F88FFEF75AFB554F386840F21A6910EA51
:101BD000090F08BF554E3CD14FF4804008F027FE56
:101BE000E8B3ABEB0500202814D210F0030F0EBFB2
:101BF00081088008411C002918BF002023D900BF9C
:101C000054F8042B326000F1010005F10405814213
:101C1000F6D818E054F8040B306054F8040B306028
:101C200054F8080B306054F8040C306054F8100B72
:101C3000306054F80C0C306054F8080C306054F8E4
:101C4000040C306020356FF04048386810EA090F06
:101C5000C2D0082008F0EBFD68B1082001E003E0E5
:101C600030E008F0ECFD80E0B8F1000F18BFA8F1FB
:101C70000108EAD179E0022008F0D9FD28B102205C
:101C800008F0DDFD0220BDE8F88F102008F0CFFD40
:101C900028B1102008F0D3FD0520BDE8F88F4FF4DF
:101CA000007008F0C4FD30B14FF4007008F0C7FDBB
:101CB0000720BDE8F88FFEF7E2FA40F2FF5008F087
:101CC000BEFD42E087F8039087F8029087F8049001
:101CD0000E48026840F21A31114301604022314639
:101CE0002046FFF769FB0A48016841F008010160DE
:101CF0000848016811F0006F2FD0B8F1000F18BF2D
:101D00004FF0FF302FD013E0E00B00203C2C0140BF
:101D10002C2C01400064024018000020342C0140AB
:101D2000102C0140142C0140F40B0020802C0140A9
:101D30003979002904BFF978002919D0A8B1F878B9
:101D400000281CBFF878BDE8F88F40F2FF5008F07B
:101D500076FD6846FFF72BFE12E0B8F1000F18BFC2
:101D6000A8F10108C5D1FFF777FA0420BDE8F88F84
:101D7000002818BF401EC6D1F7E76846FFF717FED8
:101D8000002818BFBDE8F88F9DF80010072918BF7C
:101D90000629F2D0BDE8F88F2DE9F84F0400DDE9FF
:101DA0000A694FF00000174698468DF80000054676
:101DB00009FB06FA4ED0FA490860FA49421E8860CB
:101DC000C1E900200122C860C1E90402084608F008
:101DD000D7FCF548006810F0007F1CBF0E20BDE85E
:101DE000F88FF2480078022837D0701EB0F5006FE7
:101DF00030D2701E06422DD130464FF00008012E21
:101E000006D0400808F1010101F0FF080128F8D1CF
:101E1000DFF89CB31020CBE900604020CBF808002D
:101E20000020CBF80C004FF48060CBF8100058462F
:101E300008F081FC1020FEF7A4FC002818BFBDE8C4
:101E4000F88FB9F1010F40F2498109FB06F6B6F1AE
:101E5000007F08D32620BDE8F88F790A4FF400767A
:101E600041EAC857C5E7D148007800281CBF0128BF
:101E7000022836D1CD4800894FEA0040CBF8000057
:101E80004FF03700CBF804004FF04000CBF80800CB
:101E90004FF00000CBF80C004FF48060CBF810003E
:101EA000C34808F048FC3720FEF76BFC002818BF39
:101EB000BDE8F88F1720CBE900904020CBF8080050
:101EC0000020CBF80C004FF48060CBF81000B8482D
:101ED00008F031FC1720FEF754FC002818BFBDE8BD
:101EE000F88FB34819214FF00009C0E90071402173
:101EF000C0E902190901016108F01DFC1920FEF773
:101F000040FC002818BFBDE8F88F4FEA0811A5482B
:101F10004FF00108C0E901614FF0FF31C0F80C90AB
:101F20000160C0E9049808F02BFCA04F40F21A3B76
:101F3000787810B101286FD0D0E04FF0FF36FEF76F
:101F40009CF9DFF87082D8F8000010EA0B0F40D13E
:101F50004FF4804008F06BFCE8B3AAEB05002028A2
:101F600016D210F0030F0EBF81088008411C002913
:101F700018BF002088BF904A24D900BF54F8043B02
:101F8000136000F1010005F104058142F6D819E063
:101F9000894854F8041B016054F8041B016054F88C
:101FA000081B016054F8041C016054F8101B016008
:101FB00054F80C1C016054F8081C016054F8041C0F
:101FC000016020356FF04046D8F8000010EA0B0F92
:101FD000BED0082000E006E008F029FC40B108204F
:101FE00008F02DFC88E0002E18BF761EECD183E0AF
:101FF000022008F01CFC28B1022008F020FC02207E
:10200000BDE8F88F102008F012FC30B1102008F065
:1020100016FC0520BDE8F88F32E04FF4007008F0A0
:1020200006FC30B14FF4007008F009FC0720BDE851
:10203000F88F4FF4807008F0FAFBD0B138780028A0
:102040001CBF0128022814D159484FF00C01C0E9E7
:1020500000914FF04001C0E902194FF48061016125
:1020600008F069FB0C20FEF78CFB002818BFBDE8C8
:10207000F88FFEF704F940F2FF5008F0E0FB2DE086
:1020800087F8039087F8028087F804904B4801682E
:1020900041EA0B010160314640222046FFF78CF9EE
:1020A0003F48016841F00801016045494FF0FF30A9
:1020B0000A6812F0006F19D0002818BF4FF0FF30E7
:1020C00018D03979002904BFF978002917D098B1C0
:1020D000F87800281CBFF878BDE8F88F40F2FF5070
:1020E00008F0ADFB6846FFF762FC10E0002818BF5F
:1020F000401EDDD1FFF7B0F80420BDE8F88F0028BE
:1021000018BF401EDDD1F7E76846FFF750FC0028F6
:1021100018BFBDE8F88F9DF80010072918BF0629E1
:10212000F2D0BDE8F88F70B54FF4807008F07FFBF7
:10213000224C1E4D20B3A8780021012818BFE97059
:102140000ED02048016841F480710160206820F4BD
:102150009D7020F44240206001202871E87870BD15
:1021600013480C22C0E900124022C0E902211101EB
:10217000016108F0E0FA0C20FEF703FBE870E0E7ED
:10218000022008F054FBF8B1022008F058FB206848
:1021900020F49D7020F4424020600220E87070BD61
:1021A0002C2C0140F40B0020142C014018000020BE
:1021B000E00B0020342C0140802C01403C2C0140DD
:1021C00000640240382C0140082008F030FB58B170
:1021D000082008F034FB206820F49D7020F4424071
:1021E00020600420E870DAE7202008F020FB58B1D6
:1021F000202008F024FB206820F49D7020F4424049
:1022000020600620E870CAE7102008F010FB58B1E3
:10221000102008F014FB206820F49D7020F4424048
:1022200020600520E870BAE74FF4007008F0FFFA6C
:102230000028B4D04FF4007008F001FB206820F4AF
:102240009D7020F4424020600720E870A7E76AE70D
:10225000002804BF2620704710B504465C485D493D
:102260000089000408600D2048604020886000203C
:10227000C8604FF480600861084608F05CFA0D20E1
:10228000FEF77FFA002818BF10BD53490968216086
:1022900010BD4F4810B50089002102044D4802606E
:1022A0000D2242604022C0E902211101016108F0C3
:1022B00042FA0D20FEF765FA00281CBFFF2010BD72
:1022C00045480068C0F3432010BD2DE9F047CC0D10
:1022D0004D0282B0174681464FF0000810F0030F00
:1022E0004FF4007A19D00026002F20D9700242192D
:1022F00044EBE073CDF800A03848FFF79FF8804624
:102300004FF400723549484611F0DCFD701CC6B22E
:1023100009F50079B742E9D809E0012F0BD0CDE9E2
:1023200000A22A4623464846FFF7D5F9804602B068
:102330004046BDE8F0872A4623464846CDF800A02F
:10234000FFF77CF8F2E72DE9F0430746CC0D0020BB
:102350004D0283B0904617F0030F4FF400791FD061
:102360000026B8F1000F9CBF03B0BDE8F08300BFAA
:102370004FF400723946194811F0A4FD7002421959
:1023800044EBE073CDF800901448FFF752FB711C4A
:10239000CEB207F50077B045EAD803B0BDE8F083C8
:1023A000B8F1010F09D0CDE900922A4623463846FC
:1023B000FFF7F2FC03B0BDE8F0832A462346384617
:1023C000CDF80090FFF735FB03B0BDE8F0830000C7
:1023D00018000020E00B0020142C0140880C002085
:1023E00070B5474C05460221204608F0E7FD00285D
:1023F000F9D02946204608F0B5FD0121204608F015
:10240000DDFD0028F9D0204608F0AAFDC0B270BD5D
:10241000F0B589B00121022008F055F801218803A8
:1024200008F06CF84FF46040022506908DF81C50BF
:1024300000248DF81E4003208DF81D00314F012629
:102440008DF81F6006A9384607F046FE05220D21CB
:10245000384607F0C7FE05220E21384607F0C2FEB7
:1024600005220F21384607F0BDFE0121880308F040
:1024700072F80021680308F06EF8ADF800404FF4E0
:102480008270ADF80200ADF808602802ADF80A00CD
:102490003820ADF80C00ADF80440ADF80E40072030
:1024A000174CADF81000ADF806506946204608F00C
:1024B0003FFC0121204608F0EFFCFF2502212046C9
:1024C00008F07CFD0028F9D02946204608F04AFD96
:1024D0000121204608F072FD0028F9D0204608F0BE
:1024E0003FFD09B0F0BD01460548028822F03802E0
:1024F0000280028811430180012108F0CDBC000058
:10250000003800400004024070B5FF4C0025C4F8BC
:10251000B052902004F52C74FFF762FF0020FFF703
:102520005FFF0020FFF75CFF0020FFF759FFFF204F
:10253000FFF756FF45EA0025FF20FFF751FF28432C
:102540000121216070BD70B582B00121022007F029
:10255000BAFF4FF48050012400908DF8044000260B
:102560008DF8066003208DF805008DF80740694658
:10257000E64807F0B1FDE44DC5F8B04205F52C750D
:10258000FFF746FF0020FFF7AEFF2E609020FFF719
:1025900027FF0020FFF724FF0020FFF721FF002086
:1025A000FFF71EFFFF20FFF71BFF46EA0026FF2074
:1025B000FFF716FF30432C60D549088002B070BD8C
:1025C00010B5D14C0020C4F8B002052004F52C74DD
:1025D000FFF706FFFF20FFF703FF0121216010BD79
:1025E00070B5C94C00210546C4F8B012012004F5AD
:1025F0002C74FFF7F5FE2846FFF7F2FE012020605D
:1026000070BD10B5C04C0020C4F8B002062004F51F
:102610002C74FFF7E5FE0120206010BD10B5BA4C08
:102620000020C4F8B002042004F52C74FFF7D8FE93
:102630000120206010BD2DE9F041B34F0646002077
:1026400015460C46C7F8B0020320FFF7C9FEC4F3D5
:102650000740FFF7C5FEC4F30720FFF7C1FEE0B255
:10266000FFF7BEFE0024002D07D9FF20FFF7B8FEBC
:102670003055601C84B2A542F7D80120C7F8B002DB
:10268000BDE8F08170B500269F4C0125C4F8B0620A
:102690000520FFF7A5FEFF20FFF7A2FEC4F8B05209
:1026A00010F0010FF2D170BD2DE9F047964C0027D4
:1026B00016460D468146C4F8B0720620FFF790FE1C
:1026C0004FF00108C4F8B082C4F8B0720220FFF7DE
:1026D00087FEC5F30740FFF783FEC5F30720FFF72A
:1026E0007FFEE8B2FFF77CFE0025002E08D900BF70
:1026F00019F80500FFF774FE681C85B2AE42F7D8E2
:10270000C4F8B082C4F8B0720520FFF769FEFF205C
:10271000FFF766FEC4F8B08210F0010FF2D1BDE8F9
:10272000F0872DE9F05F0546C8B2C0F58074894690
:102730009046A24298BF14464FF0000B724F4FF0E4
:10274000010A00BFC7F8B0B20620FFF749FEC7F87C
:10275000B0A2C7F8B0B20220FFF742FEC9F30740AB
:10276000FFF73EFEC9F30720FFF73AFE09F0FF002E
:10277000FFF736FE0026002C06D9A85DFFF730FED5
:10278000701C86B2B442F8D8C7F8B0A2C7F8B0B28D
:102790000520FFF725FEFF20FFF722FEC7F8B0A2B5
:1027A00010F0010FF2D1A04508BFBDE8F09F25440D
:1027B000A8EB04001FFA80F8A144B8F5807F94BF0D
:1027C00044464FF48074BDE72DE9F04104460146CC
:1027D00050A011F053FA25034B4C0027C4F8B072F7
:1027E0000620FFF7FDFD0126C4F8B062C4F8B07200
:1027F0000520FFF7F5FDFF20FFF7F2FDC4F8B062FA
:1028000010F0010FF2D1C4F8B0722020FFF7E8FDFC
:10281000C5F30740FFF7E4FDC5F30720FFF7E0FD30
:10282000E8B2FFF7DDFDC4F8B06200BFC4F8B072D3
:102830000520FFF7D5FDFF20FFF7D2FDC4F8B062F9
:1028400010F0010FF2D1BDE8F0812DE9F74F84B00F
:102850003248019005980699000B00900598C0F346
:102860000B04C4F580500290814298BF0291264D1E
:102870004FF0010BDDE900084FF0000A07034FF4A9
:102880008059C5F8B0A20320FFF7AAFDC7F307409F
:10289000FFF7A6FDC7F30720FFF7A2FD5046FFF79D
:1028A0009FFD0026FF20FFF79BFD08F80600701C27
:1028B00086B24E45F6D3C5F8B0B202990020002981
:1028C00009D901992218895CFF2904D1401C029979
:1028D00080B28842F5D3029988427DD20DA000993A
:1028E00011F0CCF95646C5F8B0A20620FFF778FDE6
:1028F000C5F8B0B2C5F8B0620520FFF771FDFF2042
:10290000FFF76EFD0CE00000008040420004024032
:102910002800002066653A25780D0A00880E002000
:10292000C5F8B0B210F0010FE4D1C5F8B0622020B4
:10293000FFF756FDC7F30740FFF752FDC7F3072027
:10294000FFF74EFDF8B2FFF74BFDC5F8B0B200BF80
:10295000C5F8B0620520FFF743FDFF20FFF740FDFB
:10296000C5F8B0B210F0010FF2D10298B8B10199D8
:1029700004982144401E029A491E12F0010F03D010
:1029800010F8012F01F8012F029A520807D043785E
:102990004B7010F8023F01F8023F521EF7D1019C24
:1029A0004FF480594FF48078C5F8B0620620FFF7E5
:1029B00017FDC5F8B0B2C5F8B0620220FFF710FDF0
:1029C000C7F30740FFF70CFDC7F30720FFF708FD2B
:1029D000F8B2FFF705FD00E02CE04FF0000AB8F177
:1029E000000F09D914F80A00FFF7FAFC0AF10100F8
:1029F0001FFA80FAD045F5D8C5F8B0B2C5F8B06274
:102A00000520FFF7EDFCFF20FFF7EAFCC5F8B0B2A8
:102A100010F0010FF2D1C14556D0A9EB08001FFA02
:102A200080F944444744B9F5807F94BFC8464FF4C9
:102A30008078B9E7DDE9048909F0FF000F46C0F5A9
:102A40008074BC4200D33C46C5F8B0A20620FFF714
:102A5000C7FCC5F8B0B2C5F8B0A20220FFF7C0FCB1
:102A6000C9F30740FFF7BCFCC9F30720FFF7B8FC28
:102A700009F0FF00FFF7B4FC0026002C08D900BFC6
:102A800018F80600FFF7ACFC701C86B2B442F7D809
:102A9000C5F8B0B2C5F8B0A20520FFF7A1FCFF2031
:102AA000FFF79EFCC5F8B0B210F0010FF2D1A742BB
:102AB0000AD0381B87B2A044A144B7F5807F88BFF5
:102AC0004FF48074C0D8BEE702990698884204BFCC
:102AD00007B0BDE8F08F00980024401C00900498D7
:102AE000084404900598084405900698401A80B25E
:102AF0000690B0F5805F88BF4FF480500290B9E631
:102B000070B5274C0025C4F8B0520620FFF768FCCA
:102B10000126C4F8B06200BFC4F8B0520520FFF728
:102B20005FFCFF20FFF75CFCC4F8B06210F0010FFF
:102B3000F2D1C4F8B052C720FFF752FCC4F8B0621B
:102B4000C4F8B0520520FFF74BFCFF20FFF748FC0C
:102B5000C4F8B06210F0010FF2D170BD10B5104C86
:102B60000020C4F8B002B92004F52C74FFF738FC3B
:102B700001202060BDE81040032000F098BC10B593
:102B8000074C0020C4F8B002AB2004F52C74FFF70A
:102B900027FC01202060BDE81040032000F087BC26
:102BA0000080404210B5A02000F0EAFA002804BFDF
:102BB000012010BD00F0D8F9002010BD2DE9F0472C
:102BC000DFF8FC810746012015460C4688F8000016
:102BD00000F0A8F9A02000F0DCF900F034FA4FF082
:102BE000000998B9200A00F0D4F900F02CFA68B96D
:102BF000E0B200F0CEF900F026FA38B900F092F910
:102C0000A12000F0C6F900F01EFA30B100F0ACF9D6
:102C100088F800900020BDE8F0870024002D88BFD0
:102C20006E1E0DD900F0E9F93855B44202D000F01B
:102C300032FA01E000F052FA601C84B2AC42F1D3E7
:102C400000F092F988F800900120BDE8F0872DE9A6
:102C5000F04115460F46064600F086F95FF0000485
:102C600000F060F9A02000F094F900F0ECF918B140
:102C7000601C84B2642CF3D3B4F57A7F14D0380A84
:102C800000F087F900F0DFF970B9F8B200F081F9CF
:102C900000F0D9F940B90024002D0ED9305D00F0C4
:102CA00078F900F0D0F920B100F05EF90020BDE81D
:102CB000F081601C84B2AC42F0D300F055F90120E1
:102CC000BDE8F0812DE9F047DFF8F4A001260546C4
:102CD0000C46B0468AF8006000F024F9A02000F00D
:102CE00058F900F0B0F94FF00009B8B9200A00F027
:102CF00050F900F0A8F988B9E0B200F04AF900F004
:102D0000A2F958B900F00EF9A12000F042F900F044
:102D10009AF9002804BF0024771E06D000F024F999
:102D20008AF800904846BDE8F08700F066F928551B
:102D3000BC4202D000F0AFF901E000F0CFF9601C16
:102D400084B2B442F1D300F00FF98AF80090404603
:102D5000BDE8F0872DE9F3416D4601260F4600F0EE
:102D600003F9002400F0DEF8A02000F012F900F0D2
:102D70006AF918B1601C84B2642CF3D3B4F57A7F7D
:102D800018D0380A00F005F900F05DF990B9F8B2F2
:102D900000F0FFF800F057F9002808BF002409D11F
:102DA000285D00F0F6F800F04EF918B9601C84B206
:102DB000B442F5D300F0D8F802B0BDE8F0810000CD
:102DC0002A000020FDF7F6BB704770B505460C469B
:102DD00045F2555008F03CFF284608F03CFF2046DD
:102DE00008F03CFFBDE8704008F03BBF704738B5C5
:102DF00001248DF8004000208DF801008DF80200BC
:102E00008DF80340684606F092FE27208DF80000FA
:102E10008DF8014004258DF802508DF80340684676
:102E200006F085FE34208DF800008DF801408DF805
:102E300002508DF80340684606F079FE47208DF871
:102E400000008DF801408DF802508DF8034068466F
:102E500006F06DFE38BD38B5042540F6B83445F2AD
:102E6000555008F0F5FE284608F0F5FE204608F01B
:102E7000F5FE08F0F6FE05F057FC03F082F800F0CE
:102E800050FA00F017FCFFF78DFE02F043FA2248DB
:102E900000F07CFF214800F079FF214800F076FF28
:102EA000FFF751FB02F080F901248DF8004000206B
:102EB0008DF801008DF802008DF80340684606F099
:102EC00036FE27208DF800008DF801408DF8025065
:102ED0008DF80340684606F02AFE34208DF8000085
:102EE0008DF801408DF802508DF80340684606F0D9
:102EF0001EFE47208DF800008DF801408DF802502D
:102F00008DF80340684606F012FE02F08FFEBDE821
:102F1000384002F015BF00003A1F00204021002079
:102F20004623002010B5F34C0821204607F04BF94A
:102F30000421204607F047F90021491CC9B20A299B
:102F4000FBD30821204607F040F90021491CC9B2F3
:102F50000A29FBD30421204607F037F90020401C42
:102F6000C0B20A28FBD310BD10B5E24C08212046A0
:102F700007F02BF90421204607F025F90021491C10
:102F8000C9B20A29FBD32046BDE81040082107F04A
:102F90001AB970B5D74E0546002400BF15F0800F52
:102FA0004FF00801304602D007F00DF901E007F0BC
:102FB0000CF90021481CC1B20A29FBD30421304678
:102FC00007F001F90021481CC1B20A29FBD30421F2
:102FD000304607F0FAF8072C03D10821304607F0F5
:102FE000F2F86806050E0021481CC1B20A29FBD37D
:102FF000601CC4B2082CD1D370BD70B50024BD4E86
:1030000025466006040E0421304607F0DCF8002156
:10301000481CC1B20A29FBD30821304607F0BFF88B
:1030200000281CBF601CC4B20421304607F0CDF854
:103030000021481CC1B20A29FBD3681CC5B2082D67
:10304000DFD3204670BD70B5AA4C0821204607F09A
:10305000BAF80021491CC9B20A29FBD30421204631
:1030600007F0B1F80021491CC9B20A29FBD3082195
:103070002546204607F093F8002814BF01240024B9
:103080000421284607F0A1F80021491CC9B20A29E9
:10309000FBD3204670BD10B5964C0821204607F0A2
:1030A00094F80021491CC9B20A29FBD30421204607
:1030B00007F089F80021491CC9B20A29FBD3042171
:1030C000204607F082F80021491CC9B20A29FBD327
:1030D0002046BDE81040082107F075B810B5854CB2
:1030E0000821204607F06FF80021491CC9B20A29BF
:1030F000FBD30421204607F066F80021491CC9B221
:103100000A29FBD30421204607F05FF80020401C69
:10311000C0B20A28FBD310BD70B582B001211020C7
:1031200007F0F5F9012404208DF804400326714DC1
:1031300000908DF805608DF806406946284606F037
:10314000CBFF08208DF8044000908DF805608DF8C5
:1031500006406946284606F0BFFF0821284607F0CA
:1031600034F80421284607F02EF80021491CC9B282
:103170000A29FBD30821284607F025F802B070BDC4
:10318000F0B5054683B00121102007F0C0F90124F5
:1031900004208DF804400327564E00908DF80570EA
:1031A0008DF806406946304606F096FF08208DF8F7
:1031B000044000908DF805708DF806406946304651
:1031C00006F08AFF0821304606F0FFFF0421304652
:1031D00006F0F9FF0021481CC1B20A29FBD30821DF
:1031E000304606F0F0FF0821304606F0ECFF0421DF
:1031F000304606F0E8FF0021481CC1B20A29FBD383
:103200000821304606F0E1FF0021481CC1B20A291E
:10321000FBD30421304606F0D8FF0021481CC1B280
:103220000A29FBD35FF0000415F0800F4FF008016E
:10323000304602D006F0C7FF01E006F0C6FF0021CD
:10324000481CC1B20A29FBD30421304606F0BBFF5B
:103250000021481CC1B20A29FBD30421304606F0E4
:10326000B4FF072C03D10821304606F0ACFF6806F6
:10327000050E0021481CC1B20A29FBD3601CC4B250
:10328000082CD1D30821304606F09DFF0021491CAF
:10329000C9B20A29FBD30421304606F094FF00216D
:1032A000491CC9B20A29FBD30821304606F077FF32
:1032B000002814BF012400240421304606F085FFB5
:1032C0000021481CC1B20A29FBD30821304606F070
:1032D0007CFF0421304606F076FF0021481CC1B275
:1032E0000A29FBD30821304606F06DFF03B02046C3
:1032F000F0BD00000010024000B583B001210E2097
:1033000007F0E1F8032000218DF804108DF8050086
:1033100000908DF807106946594806F0DDFE03B0AD
:1033200000BD70B582B001211F2007F0CCF8012448
:103330008DF804400025FF208DF8065003260090EC
:103340008DF805608DF8074069464E4806F0C4FECA
:103350008DF8044007208DF8065000908DF8056028
:103360008DF807406946464806F0B6FE8DF80440E1
:1033700030208DF8065000908DF805608DF80740DC
:103380006946414806F0A8FE8DF804404FF47C40A1
:103390008DF8065000908DF805608DF8074069465D
:1033A0003A4806F099FE8DF804404FF680708DF88B
:1033B000065000908DF805608DF807406946344846
:1033C00006F08AFE02B070BD70B52D4D0121284671
:1033D00006F0E5FE2F4C02212070284606F0DFFEA5
:1033E0002A4E60700221304606F0D9FEA0700421FA
:1033F000304606F0D4FEE0700821304606F0CFFEDD
:1034000020711021304606F0CAFE607180213046DE
:1034100006F0C5FEA0714021284606F0C0FEE0710E
:103420008021284606F0BBFE2072A915284606F02A
:10343000B6FE2346607203F10A0101F10A000A2474
:10344000A0F11E0C5FF0000613F8012B0D789542D9
:1034500018BF067007D105786D1CEDB205700A2DF6
:1034600028BF8CF8002001F8012B621E401C0CF1D3
:10347000010C12F0FF04E7D107490A20087070BD63
:10348000000402400000024000080240000C02401C
:1034900000100240921E00202C000020012080F32A
:1034A0001088F848C069002181F310887047002215
:1034B000002898BF70470021491CC9B21D29FBD3C1
:1034C000521C8242F7D37047002300288CBF47F27A
:1034D000481270470021491C89B29142FBD35B1C02
:1034E0008342F7D3704700B583B04FF0804007F0B8
:1034F0009BFD0121084607F001F840F2F31001900E
:103500004720ADF800000020ADF80800ADF802003B
:1035100069464FF0804007F061FE0121880708F0FE
:10352000B3FA01221146900708F08FFA01218807AB
:1035300007F0D5FE03B000BD704710B5D24C84B083
:10354000204607F071FD0121042006F0D7FF182066
:1035500001904720ADF800000021ADF80810ADF84B
:1035600002106946204607F039FE0121204608F086
:103570008BFA01221146204608F067FA0121204605
:1035800007F0ADFE04B010BDC04908800028FDD191
:10359000704770B5BB4DE869401CE861E8696FF0A1
:1035A00000410024884208BFEC61B94804214288E8
:1035B000002A1CBF521E42808288002A1CBF521E55
:1035C0008280001D491EF2D1A889401CA881E9898A
:1035D00001200A2927BFEC81E870491CE981A98AEA
:1035E000142927BFAC82A871491CA982298A6429A1
:1035F0003CBF491C298213D3A6492C8228714978E3
:103600004EF6602311F0040F06D0A34A11888B42B6
:1036100006D9491C118003E0A04A11889942F8D3C9
:10362000E98AC82927BFEC82E871491CE982698AC6
:10363000B1F57A7F3CBF491C698211D36C826871F5
:10364000697800291CBF491E6970C9B2491E022948
:1036500006D29349B1F84220022A08BFA1F87606A3
:10366000298BB1F5FA6F23BF2C8328722870481C70
:1036700038BF288303F007FD01F09BFE02F00AFB30
:103680006889B0F5FA6F2EBF6C81401C688185484F
:103690000188491C018084480188491C01808348B5
:1036A0000188491C018005F06EF8BDE8704004F007
:1036B00009BA70477E484FF47A710068B0FBF1F0A8
:1036C000411EB1F1807F28BF70474FF0E02041617B
:1036D000784AF02182F8141D0021816107210161DF
:1036E0007047704770476748C178012918BF704715
:1036F0000021C170704803790122012B1CBF018099
:10370000417111D06C48837A801D012B1EBF01804E
:103710004171704701884388994224BF42717047C4
:103720000188491C018070470388B0F802C06345D6
:1037300028BF4271E6D203885B1C0380E2E7514850
:103740000179012918BF704730B40022DFF86CC13D
:10375000027111465FF0010401EB41000CEB4000E7
:103760000379012B1CBF028042711FD0481CC1B2DB
:103770000A29F1D35249088800281CBF401E08803E
:10378000488800281CBF401E4880888800281CBF2D
:10379000401E8880C88800281CBF401EC880088939
:1037A00000281CBF401E088130BC70470588438834
:1037B0009D4228BF4471D9D203885B1C0380D5E7A2
:1037C00010B5304CE079012818BF10BD0020E07121
:1037D0003C480078002808BF05F0B2FBA07800281C
:1037E00008BF10BD3849002008F075FDBDE8104045
:1037F0003649002008F0FABD224810B44179012969
:103800001CBF10BC7047002141713148037901226F
:10381000012B1CBF018041711FD0DFF8B4C00CF137
:1038200006009CF80A30012B1CBF018041711FD09B
:103830009CF810300CF10C00012B1CBF0180417171
:103840004AD024480B22018800291CBF491E018050
:10385000801C521EF7D110BC70470388B0F802C01C
:10386000634528BF4271D8D203885B1C0380D4E72C
:1038700003884488A34228BF4271D9D203885B1CC5
:103880000380D5E730000020000800400A1F002018
:10389000081F002058320020360400202E0400208B
:1038A000042900203A1F0020402100204623002048
:1038B000040000200FE000E0B01E0020BC1E00202D
:1038C0001A1F00202A000020860200208A02002001
:1038D000F81E0020241F002001884388994228BF39
:1038E0004271AED20188491C0180AAE70078704776
:1038F000F64AFF23137053704B1EDBB238BF70477C
:1039000010B400BF10F8011B92F800C0547881EA8F
:103910000C01DFF8BCC35B1EDBB21CF801C084EAFB
:103920000C0C82F800C0DFF8ACC31CF80110517019
:10393000E8D210BC7047E8490A7D4B7D9A4204BF2B
:10394000002070478A5C0270087DE44A401CA2FB9C
:1039500000321209524202EB820200EB820008752B
:1039600001207047DC480021017541757047DA4934
:103970004A7D8854487DD94A401CA2FB0032120976
:10398000524202EB820200EB82004875704770479A
:10399000704770B50021D24886B00C464218947129
:1039A000491CC9B2FF29F9D380F8054280F80442C6
:1039B000047104808470CB4D284606F073FF01210A
:1039C000082006F09BFD0121880406F097FDC64EF5
:1039D00007220821304606F005FC0722092130465F
:1039E00006F000FC4FF44070049002208DF81400A3
:1039F00003208DF815008DF8164001208DF8170072
:103A000004A9304606F068FB4FF416400090ADF86C
:103A100008400C20ADF80440ADF80A00ADF80640AF
:103A2000ADF80C406946284606F0BCFF4021284608
:103A300007F0E9F82021284607F0E5F8012240F2D6
:103A40002661284607F0C0F8012240F22551284699
:103A500007F0BAF80121284607F020F806B070BD3B
:103A600070B5A24D86B0284606F01CFF0121042047
:103A700006F044FD0121C80406F040FD9C4E0822DA
:103A80000A21304606F0AEFB08220B21304606F034
:103A9000A9FB4FF44060049002208DF8140003202D
:103AA0008DF8150000248DF8164001208DF81700C0
:103AB00004A9304606F010FB4FF416600090ADF8F4
:103AC00008400C20ADF80440ADF80A00ADF80640FF
:103AD000ADF80C406946284606F064FF40212846B0
:103AE00007F091F82021284607F08DF8012240F2D6
:103AF0002661284607F068F8012240F22551284641
:103B000007F062F80121284606F0C8FF06B070BD34
:103B10002DE9F0410021774886B00C464218947197
:103B2000491CC9B2FF29F9D380F8054280F8044244
:103B3000047104808470704F384606F0B3FE012192
:103B4000042006F0DBFC0121202006F0E0FCDFF879
:103B5000A08108220621404606F044FB08220721E6
:103B6000404606F03FFBC020009002208DF8040084
:103B700003268DF805608DF8064001258DF8075065
:103B80006946404606F0A8FA4FF416500290ADF888
:103B900010400C20ADF80C40ADF81200ADF80E400E
:103BA000ADF8144002A9384606F0FCFE8DF804502A
:103BB00028028DF8064000908DF805608DF80750BA
:103BC0006946404606F088FA2902404606F0FBFAAC
:103BD0004021384607F017F82021384607F013F83F
:103BE000012240F22661384606F0EEFF012240F243
:103BF0002551384606F0E8FF0121384606F04EFF11
:103C000006B0BDE8F08170B5354CA04219D1354DF4
:103C100040F22661284607F01FF8012240F2266193
:103C2000284606F0D1FF21796218481C207191794D
:103C3000284606F056FF94F80502401E84F8050257
:103C400070BD2E4CA04219D1284D40F22661284665
:103C500007F002F8012240F22661284606F0B4FF80
:103C600021796218481C20719179284606F039FFA5
:103C700094F80502401E84F8050270BD1D4CA04258
:103C800018BF70BD00221C4D40F22551284606F099
:103C90009BFFA915164806F098FA40F226612846BF
:103CA00006F0DAFF012240F22661284606F08CFF7A
:103CB00021796218481C20719179284606F011FF7D
:103CC00094F80502401E84F8050270BD51000020E2
:103CD00053000020530100204C250020CDCCCCCC3B
:103CE0003A1F002000480040000C0240004C0040F9
:103CF000000802404623002000140140402100201B
:103D0000834910B5884213D1824C002240F22661CB
:103D1000204606F059FF40F22551204606F09CFF50
:103D20002046BDE81040012240F2255106F04CBF6C
:103D3000794988420DD1794C40F22551204606F050
:103D40008BFF2046BDE81040012240F2255106F0CD
:103D50003BBF7349884218BF10BD0022714C40F22E
:103D60002661204606F030FFA1156F4806F02BFAB9
:103D700040F22551204606F06FFF2046BDE8104076
:103D8000012240F2255106F01FBF704770B560490F
:103D900086B0884203D106B0BDE87040F9E55E49BF
:103DA000884255D15D4D284606F07CFD0121042056
:103DB00006F0A4FB0121C80406F0A0FB5A4E08221D
:103DC0000A21304606F00EFA08220B21304606F092
:103DD00009FA4FF44060049002208DF8140003208B
:103DE0008DF8150000248DF8164001208DF817007D
:103DF00004A9304606F070F94FF416600090ADF853
:103E000008400C20ADF80440ADF80A00ADF80640BB
:103E1000ADF80C406946284606F0C4FD402128460E
:103E200006F0F1FE2021284606F0EDFE012240F2C8
:103E30002661284606F0C8FE012240F22551284698
:103E400006F0C2FE0121284606F028FE06B070BD2D
:103E5000334988421CBF06B070BD06B0BDE8704053
:103E600056E670B52B4C05464021204606F0C4FEB0
:103E70000028F9D02946204606F033FE402120468E
:103E800006F0BAFE0028F9D070BD28490A7D4B7DA6
:103E90009A4204BF002070478A5C0270087D244A61
:103EA000401CA2FB00321209524202EB820200EBDC
:103EB00082000875012070471C48017D407D8142C9
:103EC00014BF0120002070472DE9F041041E08BFF7
:103ED000BDE8F0816618A64288BF0E4D13D9277839
:103EE0004021284606F088FE0028F9D039462846A9
:103EF00006F0F7FD4021284606F07EFE0028F9D0A6
:103F0000641CA642EBD80120BDE8F0817047000098
:103F10003A1F00200048004040210020004C004093
:103F20004623002000140140000802404C250020D8
:103F3000CDCCCCCC10B402464FF6FF70002908BFA0
:103F40000121A1F1010CBCF1FF3FCEBF4AF20103F8
:103F500010BC7047117848405FF0080110F0010F65
:103F60004FEA500018BF5840491EF7D1521CACF11F
:103F7000010CBCF1FF3FEDDC10BC7047F0B504460E
:103F80000078E268002506219071E26860780826D2
:103F9000D0716088E268000A03271072E268A07896
:103FA0005072E0688572E2682079D072E068801D06
:103FB000FFF7C0FFE1680873E168000A4873E06832
:103FC00080F80562E0680571E0688770F0BD70B543
:103FD00004460078E268062108259071E26860785E
:103FE0000326D0716088E268000A1072E268A07847
:103FF00050722069E2680088000A90722069E268C5
:104000000078D072E068801DFFF794FFE1680873C4
:10401000E168000A4873E06880F80552E168002012
:104020000871E068867070BD2DE9F04304460078A1
:10403000E168002607228871E16860780327C8716B
:104040006088E168000A07250872E168A0784FF0EF
:10405000060C4872E0688672E1682079C87220799F
:10406000E168400008732179002918BF00201DD0A5
:104070002369D4F80C800CEB400933F81030A844C5
:104080001B0A08F809302369D4F80C8002EB4009B8
:1040900013F81030A844401C08F80930491EE7D135
:1040A00020794000801E2844801C85B2E0682946A3
:1040B000801DFFF73FFFE168AA1D8854691C89B283
:1040C000E2688B1D000AD054481CE16881F80502A3
:1040D000E0680671E0688770BDE8F083F0B5D0F85D
:1040E0000CC00E4605469CF804120CF10602052988
:1040F00024BF00202B7820D3145C9C4204D11418D8
:104100006F786478BC4203D0401C80B28142F3D8FF
:10411000814218D91418081AC0B28CF80402611E22
:10412000A21E415C825C801E02EB01218FB281B233
:104130002046FFF7FFFE874201D00120F0BD28781E
:104140002178884201D00220F0BD687861788842E9
:104150001CBF0320F0BD06283BD004DC012807D09B
:10416000032824D064E00F2818BF102860D14BE04A
:10417000A1784FF0000000290BD92218D3781279CA
:1041800003EB022220F00103801C80B2F252814234
:10419000F3D811F0010F4BD020F00101725A2044E6
:1041A00002F47F427252C0781043705240E0A1780E
:1041B000002000293CD921180A79C97802EB012195
:1041C00020F00102B152801CA17880B28142F2D865
:1041D0002EE0E078A178227900EB0120617980B2AD
:1041E00001EB02216A8889B282421AD12A691288B7
:1041F0008A421BD1FF4A4FF47A7151802378012BF8
:1042000004BF0028518013E0E078A178227900EB08
:104210000120617980B201EB02216A8889B2824271
:1042200001D00420F0BD2879884201D00520F0BDDE
:104230000020F0BD10B50446C06800220521837837
:10424000052B28BF10BDDFE803F00C211F030D0074
:104250000271E0680280E068FFF7D5FCE1680620A3
:10426000887010BD23781BB903880F2B28BF81707D
:10427000E068B4F808C00388634538BF10BD6379AF
:104280005B1C63710280E068817010BD01880A299F
:1042900028BF0221F8D210BD10B50446817110204C
:1042A000E071100A20726272180AA072E37206218D
:1042B000A01DFFF73FFE2073000A6073082084F8FA
:1042C00005020020207110BD10B504468171052043
:1042D000E071100A20726272180AA072E37206215D
:1042E000A01DFFF727FE2073000A6073082084F8E2
:1042F00005020020207110BD10B504468171062111
:10430000C171100A20726272180AA072E372A01DB5
:10431000FFF710FE2073000A6073082084F805027E
:104320000020207110BD2DE9F04304464FF0000C31
:10433000079E6046A1710121E171F51DED0825720E
:104340000325002E2FD901FA03F8178803F1010382
:1043500017EA080F9BB20CD004EB050898F806701A
:1043600001FA00F947EA090788F80670401C80B294
:104370000AE0671997F8068001FA00F928EA0908A7
:1043800087F80680401C80B20F2B84BF0023921C4C
:10439000072802D9681CC5B200200CF1010C1FFAD5
:1043A0008CFCB445CFD316F0070F1CBF681CC5B2F8
:1043B0002946A01DFFF7BEFD61198871691CC9B2AD
:1043C000000A62189071481C84F8050200202071D0
:1043D000BDE8F0832DE9F04304464FF0000C079E42
:1043E0006046A17101210225E571F51DED082572D8
:1043F0000325002E25D9178801FA03F817EA080FBC
:1044000004EB050703F1010397F806809BB201FA5C
:1044100000F914BF48EA090828EA090887F8068065
:10442000401C80B20F2B84BF0023921C072802D9A6
:10443000681CC5B200200CF1010C1FFA8CFCB445BD
:10444000D9D316F0070F1CBF681CC5B22946A01DA2
:10445000FFF770FD61198871691CC9B2000A621802
:104460009071481C84F8050200202071BDE8F0839B
:1044700030B504460020A1710321E1715900217279
:104480000325002B14D900BF32F8101004EB050CE3
:10449000090A8CF80610691CC9B2651812F810C018
:1044A00085F806C0491C401C80B2CDB28342EBD8CF
:1044B0002946A01DFFF73EFD61198871691CC9B22C
:1044C000000A62189071481C84F8050200202071CF
:1044D00030BD2DE9F05F8046D0180E4610F8011C63
:1044E000154610F8020C00EB012084B2981E81B230
:1044F0001046FFF71FFD84421CBF0120BDE8F09F5E
:1045000098F800C0287884451FBF2878FE2802202C
:10451000BDE8F09F687888F80100C1B236480329E9
:1045200018BF04296FD04FF006094FF0080A4FF06A
:10453000010706297ED010291CBF0920BDE8F09F85
:10454000E878A97800EB012083B26879297900EB3B
:10455000012081B240F24B40834284BF0420BDE879
:10456000F09F814292BF7D290520BDE8F09F5A1837
:10457000824284BF0620BDE8F09FA879B0EB410FCE
:104580001CBF0720BDE8F09F40F24C40824298BF1C
:104590007D2924BF0820BDE8F09F1848AA7900EBC8
:1045A000430C002090420DD22A18147AD27904EBE1
:1045B000022220F001042CF80420801CAA79C0B249
:1045C0009042F1D398F80000B0711020F071180AF1
:1045D00030727372080AB072F1724946B01DFFF76B
:1045E000A9FC3073000A707386F805A200203071B0
:1045F000002006E00A1F002004290020DE310020F0
:1046000001E0BDE8F09FE978AA7801EB02216A7920
:1046100089B22B79B1F5805F02EB032293B20AD302
:10462000C24800EB4100A0F5005261463046FFF75A
:104630001FFFDDE706E000EB410261463046FFF771
:1046400017FFD5E7E978AA7801EB02218CB26979E6
:104650002A7901EB02218DB2A4F5805241F2480182
:10466000493A07D08C420BD1012D08BFB0480FD179
:1046700000F0F0B8012D08BFAE4809D100F0EAB84B
:10468000A4F58051473904BF012DAB4800F0E2800A
:10469000AA49097811F0040F02D0DCB1012C30D006
:1046A00020F81450C82C72D2DFF894B27CB1012CDF
:1046B00024D0A44A4FF0640C022C3AD00A23A24919
:1046C000032C4CD00A2C63D0132C7CD0B7E011F013
:1046D000040F03D0012004F0CFF9B8E0282D84BFE7
:1046E00028210180007804F00EFB984804F095FB27
:1046F0008BF86570012004F0BFF9A8E011F0040FF9
:1047000006D0012004F0B8F9904804F0A1FBA0E025
:104710008F4909788D4288BF418002D8002D08BF9B
:10472000478004F0CAFA8BF86570012004F0A4F900
:1047300088E0418832F81120AA4238BF828003D332
:10474000642D38BFA0F804C08346C9B2808804F045
:1047500083F9ABF80600012004F08EF972E083467D
:10476000408831F81010A94238BFABF8061003D3C7
:104770000A2D38BFABF80630C1B2BBF8060004F012
:104780004FF9ABF80400012004F076F95AE062E03A
:10479000DFF8C0B19BF800B0BBF1000F1AD0828ADD
:1047A000C280B0F802C031F81C108A4288BFC180B4
:1047B00002D80A2A38BF838083460CF0FF01C088E4
:1047C00004F02EF900E021E0ABF80400012004F031
:1047D00053F937E08346808AABF80400BBF8021037
:1047E00032F81120904288BFABF8042003D8642827
:1047F00038BFABF804C0C9B2BBF8060004F02CF90E
:10480000ABF80600012004F037F91BE08346C08CAA
:10481000012818BFABF8267001204D4B4A4A494980
:1048200004F085F8BBF8260001288CBFC82055206D
:10483000ABF820008CBF11201B20ABF82200012018
:1048400004F01AF9414804F003FB012C01D004F0F4
:1048500050FA4148077098F80000B071494686F850
:104860000790200A30727472280AB072F572B01D77
:10487000FFF760FB3073000A707386F805A2002012
:104880003071B5E670B5C16804468878032828BF42
:1048900070BDDFE800F0070208000888052824BF83
:1048A0000220887070BD91F804020426052833BFE9
:1048B0008E70401FC5B270BDA81DE16823780A5CE8
:1048C0009A4218BFFE2A1DD105F107028A5C012A0F
:1048D00018BF022A0BD0032A18BF042A07D0052AC2
:1048E00018BF062A03D00F2A18BF102A0AD191F840
:1048F0000422A2EB0502D3B201EB00022046FFF72F
:10490000E8FD40B1691ECDB2D6D2E06881780329B6
:1049100018BF867070BD0320E1688870E1680020D0
:104920000880E068FFF76FF9EFE700001A32002017
:10493000C2020020C102002025040020DE02002067
:1049400060260020D2030020FA030020AA320020B3
:10495000CC030020640200202B00002000F00F0197
:10496000000900EB800001EB4000C0B270472DE968
:10497000F04704464078E168072303268871E16820
:1049800020780625C871E168A0784FF0060C0872FF
:10499000E168E0784872A088E168000A8872E168FE
:1049A0002079C872A078401F00EBD0704210002A16
:1049B000C4BF002091B21CDD2769D4F80C800CEB39
:1049C000400937F81070A8443F0A08F809702769B1
:1049D00003EB4009D4F80C8017F81070401CA84471
:1049E000491E090408F80970090CE5D105EB4200DD
:1049F00085B2E81EC1B2E0680930FEF779FFFD48D4
:104A0000E168AA1D00788854681CFB4980B2E268FE
:104A1000831D0978D154E168401C81F80502E168E2
:104A200000200871E0688670BDE8F08770B5044624
:104A30004078E168032508268871E1682078C8710C
:104A4000A08800F58050A080E168A0780872E16835
:104A5000E0784872E16820798872E168A079C872CC
:104A6000E06829460930FEF743FFE248E168007834
:104A70000873E148E16800784873E06880F80562EF
:104A8000E16800200871E068857070BD2DE9F0478D
:104A900004464078E168072303268871E16820789E
:104AA0000625C871A0884FF0060C00F58050A08044
:104AB000E168A0780872E168E0784872A088E1684F
:104AC000000A8872E1682079C872A078401F00EB64
:104AD000D0704210002AC4BF002091B21CDD2769AB
:104AE000D4F80C800CEB400937F81070A8443F0A4A
:104AF00008F80970276903EB4009D4F80C8017F80F
:104B00001070401CA844491E090408F80970090CDB
:104B1000E5D105EB420085B2E81EC1B2E06809307C
:104B2000FEF7E6FEB348E168AA1D00788854681CC9
:104B3000B14980B2E268831D0978D154E168401C14
:104B400081F80502E16800200871E0688670BDE820
:104B5000F08770B504464078E1680325092688711E
:104B6000E1682078C871A08800F58050A080E168D5
:104B7000A0780872E168E0784872A088E268000ACC
:104B800004219072E2682079D072E268A0791073F3
:104B9000E0680930FEF7ACFE9648E168007848739B
:104BA0009548E16800788873E06880F80562E168FC
:104BB00000200871E068857070BD2DE9F05F074640
:104BC000C06888467D6990F8041200F20514052932
:104BD00072D37A7823789A4203D13A7863789A42EA
:104BE00002D00220BDE8F09FE278802A00F08F8298
:104BF000812A05D0822A62D0832A68D000F087BA41
:104C0000A17800F58470891EC9B2FEF771FEA07804
:104C1000DFF8E0A104F1010910F809109AF800206A
:104C2000914249D1DFF8D0B1A61C805D9BF80010FD
:104C3000884241D12079202840F0698261790020A2
:104C4000002910D92118897901F00F02090901EB17
:104C5000810102EB4101C9B225F81010401C6179B5
:104C600080B28142EED8F86890F80412182903D077
:104C70001A290ED000F04BBA207DE17CA27D00EB1A
:104C80000120E17D80B201EB022128F8101000F034
:104C90003EBA617C00F21710891EC9B2FEF728FEE9
:104CA000607C9AF8002010F80910914204D1805DD0
:104CB0009BF800108842DFD00120BDE8F09F132947
:104CC00024BFE17A832908BF083440F02082A1780C
:104CD00000F58470A1F10201C9B2FEF709FE217945
:104CE00060794FF4704202EB0121084485B241F231
:104CF00049000021C31FDFF804B1DFF8049141F23D
:104D0000480C502D18BF522D1DD0542D2CD0227A76
:104D1000E67902EB062296B23A4A4FF0010A854242
:104D200004BF82F800A08BF8001062D036486545B9
:104D30005CD09D4231D1002E70D03448037813F0FE
:104D4000040F1ED090E0A27A94F807A094F809E02E
:104D500002EB0A6294F808A04FEA0A4A0AEB0E2A0C
:104D60005244CBF80420D7E7A07AE279637A00EBCB
:104D70000260227A120402EB03221044CBF80800EE
:104D8000DEE082F800A0224A82F800A043F0800210
:104D900080F800208BF8001066E0A5F58053453BB5
:104DA0001CD0A5F58050473839D0A5F5805046383D
:104DB00044D0A5F5805044384BD0A5F580504338F9
:104DC0004AD0A5F15600042876D81249124A05287F
:104DD00068D2DFE800F05C60626466000B4B1B7811
:104DE00013F0040F08BF82F800A0D3D080F800A011
:104DF000D0E739E05100002052000020540200208A
:104E000004290020C1020020C2020020DE0200208E
:104E1000500000208A0200208602002022E0D448B0
:104E200000881E283CBFD34880F800A09BF80000F3
:104E30000A2824BF0320A9F8760615E0002002F016
:104E4000BFFE03F0BCFC9BF80000401C8BF8000088
:104E50000AE003F0DAF907E0C7480278012A08BF40
:104E6000017001D080F800A0C82D80F05081E5B31A
:104E7000012D76D06422C149022D73D0C048032D84
:104E800071D00A2D70D0132D6FD000F032B9A6F575
:104E9000FA60C87006E04E7004E08E7002E0167092
:104EA00000E05670B749002007F04DFAB6490020DF
:104EB00007F0BCF932E0FFE7502D36D0542D3FD03B
:104EC000B2488BF80010007810F0040F02D065B1E2
:104ED000012D67D0A17919B3621D08EB4500801E32
:104EE00011F0010F08D0D17800E03FE012F8023F46
:104EF00001EB032120F8021FA179490810D0D378D3
:104F000092F802C0491E03EB0C234380537912F838
:104F100004CF03EB0C2320F8043FF0D1502D79D0BF
:104F2000522D18BF542D75D09EE7994ADBF8040026
:104F3000904204BF0A20A9F87606CBF80410E6E0F8
:104F4000DBE90102904207D10A22A9F87626020C79
:104F5000A9F83C20A9F83E00CBF80810CBF80410C3
:104F6000D5E01FE03EE056E06EE0A9E0874800781B
:104F700010F0040F03D0012003F07EFDC1E0282EC5
:104F800084BF2820A9F8000099F8000003F0BBFEB8
:104F9000804803F042FF804880F865A0012003F0BC
:104FA0006BFDAEE07948007810F0040F06D00120C8
:104FB00003F062FD774803F04BFFA4E077480078E8
:104FC000864288BFA9F8020003D8002E08BFA9F8BE
:104FD00002A003F072FE704880F865A0012003F083
:104FE0004BFD89E0B9F8020031F81010B14238BF2A
:104FF000A9F8041003D3642E38BFA9F80420C1B265
:10500000B9F8040003F028FDA9F80600012003F018
:1050100033FD71E07BE0B9F8021030F81100B042C6
:1050200038BFA9F8060004D30A2E3CBF0A20A9F80D
:105030000600C9B2B9F8060003F0F2FCA9F80400B2
:10504000012003F019FD57E04B4B1B78E3B1B9F891
:105050001410A9F80610B9F8022030F812008142A5
:1050600088BFA9F8060004D80A293CBF0A20A9F87D
:105070000600D1B2B9F8060003F0D2FCA9F804008A
:10508000012003F0F9FC37E0B9F81400A9F8040096
:10509000B9F8023031F81310884288BFA9F804101B
:1050A00003D8642838BFA9F80420D9B2B9F804009D
:1050B00003F0D2FCA9F80600012003F0DDFC1BE0A0
:1050C000B9F82600012818BFA9F826A00120334B03
:1050D0002B4A2A4903F02BFCB9F8260001288CBF83
:1050E000C8205520A9F820008CBF11201B20A9F84A
:1050F0002200012003F0C0FC264803F0A9FE012D88
:1051000001D003F0F6FD26487D8380F800A0002042
:10511000BDE8F09F70B50446C06800258178052978
:105120000ED2DFE801F00D0D0D030B000571E068F4
:10513000FEF769FDE1680620887001E005218170B5
:10514000E068C178002908BF70BD012909D0022993
:1051500018BF70BD13492046FFF72FFDE068C570EA
:1051600070BD01886289914224BF0221C17070BD67
:105170001A3200202504002064020020D2030020FF
:10518000FA0300208A02002086020020DE020020AE
:105190006C7F0D00AA32002060260020CC03002086
:1051A0002B00002004290020F0B583B0012103204A
:1051B00005F089F901248DF8044000254FF40040E2
:1051C0008DF806500326514F00908DF805608DF83C
:1051D00007406946384604F07FFF8DF804408DF89B
:1051E00006508DF805608DF807402820484C009047
:1051F0006946204604F070FF10208DF8045000909E
:105200008DF805608DF807506946204604F064FF6C
:105210004FF40041384604F0D6FF0821204604F040
:10522000D4FF03B0F0BD00EB40000004000C18BF39
:10523000401EFAD170472DE9F0410024344F064654
:10524000082500BF16F0800F4FF02001384602D02D
:1052500004F0B9FF01E004F0B8FF7006060E600626
:10526000040E1021384604F09AFF01280CBF44F0C8
:10527000010404F0FE040821384604F0A4FF1E21B6
:10528000481E0104090CFBD10821384604F09DFF9B
:105290001E21481E0104090CFBD1681E10F0FF05F9
:1052A000D0D12046BDE8F08170B5184D04464FF4CA
:1052B0000041284604F089FF3C21491E0904090CDD
:1052C000FBD1032C0ED30720241FFFF7B4FFA00748
:1052D000000EFFF7B0FF0007040DFF20FFF7ABFF44
:1052E00004440CE00620FFF7A6FFA007000EFFF71E
:1052F000A2FF0007040DFF20FFF79DFF04444FF4B9
:105300000041284604F05FFF204670BD00000240C7
:105310000004024010B58CB00121042005F0D3F840
:105320000121080205F0F3F808200A9003208DF807
:105330002C0000248DF82F400AA9334804F0CCFE3D
:105340000121080205F010F900214FF4807005F0EA
:105350000BF906944FF480300994CDE9070406A8B0
:1053600006F0D2FC8DF8044000948DF805400294BC
:1053700004940120254C8DF814006946204606F05F
:1053800091FC0121204606F0D7FC072301220D21C4
:10539000204606F003FD204606F049FD0CB010BD86
:1053A000012080F310881A480021408881F310887A
:1053B00070472DE9F041154E304606F068FD024673
:1053C0001348144F017827F81120491C202938BFB1
:1053D000017014D3002101703A887C88394600237B
:1053E0004FF00F0C31F8045F22444C882B44BCF181
:1053F000010CF7D1D118FA8F114449094180304688
:10540000BDE8F04106F013BD000802400020014055
:10541000600200206225002070B582B001210220C8
:1054200005F075F8022401258DF805408DF804502B
:105430002946FE4E304604F0C8FE694630460095C7
:1054400004F04AFE69463046009404F045FE02B07E
:1054500070BDF74A00234FF0010C40B1012818BF7E
:105460007047002914BF82F803C0D3707047002929
:1054700014BF82F802C093707047002181423CBF84
:10548000491C89B2FAD3704700B583B002208DF869
:10549000050001208DF80400000200906946E548EF
:1054A00004F01AFE03B000BD00B583B002208DF8F1
:1054B000050000208DF804004FF4807000906946CC
:1054C000DC4804F009FE03B000BD30B583B0012113
:1054D000122005F01CF802208DF805000420D34DA1
:1054E000012400908DF804406946284604F0F4FD3C
:1054F00069462846009404F0EFFD200200906946BA
:10550000CC4804F0E9FD0121284604F05CFE03B01C
:1055100030BD2DE9F041C74FC44E0546002400BF01
:1055200015F0010F4FF48071384602D004F04BFEA5
:1055300001E004F04AFE0421304604F046FE322029
:105540000021491C89B28142FBD30421304604F07A
:105550003AFE32200021491C89B28142FBD3601CF3
:105560006D08C4B2082CDBD3BDE8F08170B5AF4D37
:1055700004460121284604F026FE1E220021481C74
:1055800081B29142FBD30121284604F01EFE0A227B
:105590000021481C81B29142FBD32046BDE87040F7
:1055A000B7E72DE9F043A14F83B00324012138462A
:1055B00004F009FE1E220021481C81B29142FBD357
:1055C0000121384604F001FE0A220021481C81B264
:1055D0009142FBD32046FFF79CFF4024012138462F
:1055E00004F0F1FD1E220021481C81B29142FBD340
:1055F0000121384604F0E9FD0A220021481C81B24D
:105600009142FBD32046FFF784FFC0240121384696
:1056100004F0D9FD1E210020401C80B28842FBD33B
:105620000121384604F0D1FD0A210020401C80B23F
:105630008842FBD32046FFF76CFF7F4900226B4670
:1056400008247E48A1F10C080EE0042A07D0062A9F
:1056500004BF98F801C0BCF1010F05D15CE098F8D7
:1056600000C0BCF1010F4ED091F800C010F80CC082
:1056700083F800C0491C521CA4F1010C5B1C1CF0F7
:10568000FF04E2D1DFF8AC919DF80100E04000F0AA
:1056900001019DF80000E04061F35F009DF80210F9
:1056A000E14001F0010140EA81009DF80310E14072
:1056B00001F0010140EAC1009DF80410E14001F051
:1056C000010140EA01119DF80500E04000F00100F1
:1056D00041EA40109DF80610E14001F0010140EA66
:1056E00081109DF80710E14001F0010140EAC11668
:1056F0005FF0000516F0010F4FF48071484612D09C
:1057000004F061FD11E091F800C010F80CC04CF0FD
:10571000800C83F800C0ADE791F800C010F80CC011
:105720004CF0800CA4E704F050FD0421384604F04E
:105730004CFD32210020401C80B28842FBD3042162
:10574000384604F040FD32210020401C80B28842DF
:10575000FBD3681C7608C5B2082DCBD344B1012C0D
:1057600001BF98F8030001280126002538D006E083
:1057700098F80200012804BF012600250BD000265E
:105780004FEA060516F0010F4FF48071484657D0D6
:1057900004F019FD56E016F0010F4FF480714846F1
:1057A00002D004F010FD01E004F00FFD04213846A2
:1057B00004F00BFD32210020401C80B28842FBD354
:1057C0000421384604F0FFFC32210020401C80B246
:1057D0008842FBD3681C7608C5B2082DDBD34AE0AB
:1057E00016F0010F4FF48071484602D004F0EBFC34
:1057F00001E004F0EAFC0421384604F0E6FC322122
:105800000020401C80B28842FBD30421384604F0BB
:10581000DAFC32210020401C80B28842FBD3681C95
:105820007608C5B2082DDBD325E000000004024055
:10583000640200200010024070020020665F02082F
:1058400004F0C3FC0421384604F0BFFC32210020E0
:10585000401C80B28842FBD30421384604F0B3FCDC
:1058600032200021491C89B28142FBD3681C760892
:10587000C5B2082D86D3601CC4B2082CFFF404AF57
:105880008C240121384604F09EFC1E210020401C7F
:1058900080B28842FBD30121384604F096FC0A21ED
:1058A0000020401C80B28842FBD32046FFF731FE27
:1058B0000121384604F087FC03B0BDE8F0832DE9F0
:1058C000F04FD24F83B042240121384604F07BFCD4
:1058D0001E210020401C80B28842FBD301213846A3
:1058E00004F073FC0A220021481C81B29142FBD3D0
:1058F0002046FFF70EFE4FF0020B4FF48070DFF8EA
:1059000010938DF805B04FF0000800908DF80480DA
:105910006946484604F0E0FBBE4D002405F1060A46
:105920000026285D042140082855384604F04DFC27
:1059300032210020401C80B28842FBD3042138462B
:1059400004F041FC40F6C4110020401C80B28842A3
:10595000FBD34FF48071484604F021FC012803D1A9
:10596000285D40F080002855285DFF2808BF05F815
:105970000480701CC6B2082ED3D3285D0AF8040038
:10598000601CC4B2022CCBD38DF805B001208DF879
:105990000400000200906946484604F09DFB03B0F5
:1059A0003846BDE8F04F012104F00DBC2DE9F001AF
:1059B000994B0029DA8004BFBDE8F001704700244C
:1059C00011F0010FDFF854C210D0ACFB0254E40810
:1059D000644204EB84040D1802EB440405F8014C06
:1059E0004CF6CD446243D20CDA8001244A0804BF4D
:1059F000BDE8F0017047DD88ACFB0576F60876421D
:105A000006EB860605EB46070E1B064404F102046E
:105A100006F8017C4CF6CD477D43ED0CACFB0587C9
:105A2000FF087F4207EB870705EB470706F8027C74
:105A30004CF6CD467543ED0CDD80521EDBD1BDE842
:105A4000F001704770B4744A754B4FF0010C11812E
:105A5000002943DB82F801C08C4683FB0C54A5105F
:105A6000A5EBE474644204EB840401EB440C80F87D
:105A700002C046F2676411FB04FC4FEAAC44A4EB9D
:105A8000EC7C83FB0C54A510A5EBE474644204EB9E
:105A900084040CEB4404447046F267641CFB04FC71
:105AA0004FEAAC44A4EBEC7C83FB0C439C10A4EBCE
:105AB000E3735B4203EB83030CEB4303037046F297
:105AC00067631CFB03F34FEAA34CACEBE373138156
:105AD0006429BCBF1421017070BC70474C4221B2D4
